:020000040000FA
:0400000080314B28D8
:100008007E1480312E000F1C0A280B284928230053
:100018001012101B102811281528901F14281528B5
:100028001C280C08F1007108F0001013901310162A
:100038008F1A1F28202831280F192328242831280F
:1000480020008C1423000C08F1007108F0000F1C2C
:100058002E282F282B28101647288F1A34283528A1
:1000680047280F1D3828392847280C08F10071083F
:10007800F0000F1020000C0823008C0010160F1839
:100088004628472843282E000F107E10090080318B
:100098004D28F0017E1020008031AB282000960109
:1000A800970198019101FF309200FF309300E730EB
:1000B8003E00CE00FF30C300FD30B800E501C401AA
:1000C800B901CF01BA01C501D001FF30BB00FF3033
:1000D800C600FF30D100FF30BC00FF30C700FF3042
:1000E800D2000830E8000800C03023008F00A0309C
:1000F8008D00FF308E003E30900021309100FF309F
:1001080092008B170B172E000F108F1019149914CB
:1001180008008031A3208031803152208031803125
:100128009A20803180317820803108006030310099
:100138008D008F01910102309300920108002F0079
:1001480096019701980199019A019B010800803155
:0A0158008D208031AE2880314B2845
:00000001FF
