:020000040000FA
:0400000080314428DF
:100008007E14803123008C012E000F1C0C280D2833
:10001800422823001012101B122813281728901F9B
:10002800162817281E280C08F2007208F100101371
:10003800901310168F1A2128222840280F192528D6
:10004800262840280F1C29282A2826280C08F200D0
:100058007208F000DB307006031D33283428362878
:1000680020000C1474307006031D3B283C283E28E1
:1000780020008C14230010162E000F107E1009008B
:1000880080314628F001F1017E1020008031B1282E
:1000980020009601970198019101FF309200FF30EE
:1000A8009300E7303E00CE00FF30C300B801E50101
:1000B800C401B901CF01BA01C501D001FF30BB00AD
:1000C800FF30C600FF30D100BC01FF30C700FF3051
:1000D800D2000830E80013303D00C50014303E005F
:1000E800A3001530A40014303D00C6003E00CE1118
:1000F8004E120800C03023008F0074308D00FF308E
:100108008E00263090000130910092018C018B17EF
:100118000B172E000F108F10191499140800803136
:10012800A920803180314C2080318031A02080315D
:1001380080317E2080310800603031008D008F01D1
:10014800910102309300920108002F009601970157
:10015800980199019A019B01080080319320803110
:06016800B4288031442898
:00000001FF
