:020000040000FA
:0400000080317028B3
:100008007E1480312E000F1C0A280B286E2823002E
:100018001012101B102811281528901F14281528B5
:100028001C280C08F3007308F10010139013101625
:100038008F1A1F28202858280F19232824285828C1
:100048000F1C2728282824280C08F3007308F1001F
:1000580010160F1C302831282D280C08F3007308BF
:10006800F000DB307006031D3A283B283D282000AD
:100078000C1474307006031D4228432845282000BC
:100088008C14DB307106031D4A284B284D282000AC
:100098000C1574307106031D52285328552820006A
:1000A8008C15230010166C288F1A5B285C286C2886
:1000B8000F1D5F2860286C280C08F3007308F100F6
:1000C8000F1070088C0010160F186B286C28682801
:1000D8002E000F107E10090080317228F001F10106
:1000E800F2017E1020008031DF2820009601970160
:1000F80098019101FF309200FF309300E7303E00F5
:10010800CE00FF30C300B801E501C401B901CF0139
:10011800BA01C501D001FF30BB00FF30C600FF3077
:10012800D100BC01FF30C700FF30D2000830E80022
:1001380013303D00C50014303E00A3001530A40064
:1001480014303D00C6003E00CE114E120800C030EB
:1001580023008F0074308D00FF308E002630900011
:1001680001309100920112168C018B170B172E008B
:100178000F108F101914991408008031D72080317E
:100188008031792080318031CE2080318031AB20A0
:1001980080310800603031008D008F0191010230FC
:1001A8009300920108002F00960197019801990188
:1001B8009A019B0108008031C1208031E2288031FA
:0201C80070289D
:00000001FF
