:020000040000FA
:0400000080315B28C8
:100008007E1480312E000F1C0A280B285928230043
:100018001012101B102811281528901F14281528B5
:100028001C280C08F3007308F10010139013101625
:100038008F1A1F28202857280F19232824285728C3
:100048000F1C2728282824280C08F3007308F1001F
:1000580010160F1C302831282D280C08F3007308BF
:10006800F000DB307006031D3A283B283D282000AD
:100078000C1474307006031D4228432845282000BC
:100088008C14DB307106031D4A284B284D282000AC
:100098000C1574307106031D52285328552820006A
:1000A8008C15230010162E000F107E1009008031C9
:1000B8005D28F001F101F2017E1020008031CA288C
:1000C80020009601970198019101FF309200FF30BE
:1000D8009300E7303E00CE00FF30C300B801E501D1
:1000E800C401B901CF01BA01C501D001FF30BB007D
:1000F800FF30C600FF30D100BC01FF30C700FF3021
:10010800D2000830E80013303D00C50014303E002E
:10011800A3001530A40014303D00C6003E00CE11E7
:100128004E120800C03023008F0074308D00FF305D
:100138008E002630900001309100920112168C0139
:100148008B170B172E000F108F1019149914080015
:100158008031C22080318031642080318031B920E3
:1001680080318031962080310800603031008D0068
:100178008F01910102309300920108002F0096012F
:100188009701980199019A019B0108008031AC20E0
:080198008031CD2880315B2885
:00000001FF
