:020000040000FA
:0400000080314E28D5
:100008007E1480312E000F1C0A280B284C28230050
:100018001012101B102811281528901F14281528B5
:100028001C280C08F1007108F0001013901310162A
:100038008F1A1F28202834280F1923282428342809
:100048000F1C2728282824280C182B282E282000A5
:100058008C14302820008C108C14230010164A2889
:100068008F1A372838284A280F1D3B283C284A2849
:100078000C08F1007108F0000F1020000C08230094
:100088008C0010160F1849284A2846282E000F10F1
:100098007E10090080315028F0017E102000803148
:1000A800BB2820009601970198019101FF3092002A
:1000B800FF309300E7303E00CE00FF30C300FD3034
:1000C800B800E501C401B901CF01BA01C501D001E9
:1000D800FF30BB00FF30C600FF30D100FF30BC004E
:1000E800FF30C700FF30D2000830E80013303D0071
:1000F800C50014303E00A3001530A40014303D00A4
:10010800C6003E00CE114E120800C03023008F00FA
:10011800A0308D00FF308E00263090000130910015
:1001280092018B170B172E000F108F1019149914AA
:1001380008008031B32080318031552080318031F2
:10014800AA20803180318920803108006030310058
:100158008D008F01910102309300920108002F0059
:1001680096019701980199019A019B010800803135
:0A0178009D208031BE2880314E2802
:00000001FF
